{
  "address": "0x5FbDB2315678afecb367f032d93F642f64180aa3",
  "abi": [
    {
      "inputs": [],
      "stateMutability": "nonpayable",
      "type": "constructor"
    },
    {
      "inputs": [
        {
          "components": [
            {
              "internalType": "uint256",
              "name": "needId",
              "type": "uint256"
            },
            {
              "internalType": "string",
              "name": "title",
              "type": "string"
            },
            {
              "internalType": "string",
              "name": "category",
              "type": "string"
            },
            {
              "internalType": "uint256",
              "name": "paid",
              "type": "uint256"
            },
            {
              "internalType": "string",
              "name": "deliveryCode",
              "type": "string"
            },
            {
              "internalType": "string",
              "name": "child",
              "type": "string"
            },
            {
              "internalType": "address",
              "name": "signer",
              "type": "address"
            },
            {
              "internalType": "bytes",
              "name": "swSignature",
              "type": "bytes"
            },
            {
              "internalType": "string",
              "name": "role",
              "type": "string"
            },
            {
              "internalType": "string",
              "name": "content",
              "type": "string"
            }
          ],
          "internalType": "struct INeedStorage.InitialVoucher",
          "name": "_voucher",
          "type": "tuple"
        }
      ],
      "name": "_verify",
      "outputs": [
        {
          "internalType": "address",
          "name": "",
          "type": "address"
        }
      ],
      "stateMutability": "view",
      "type": "function"
    },
    {
      "inputs": [],
      "name": "getChainID",
      "outputs": [
        {
          "internalType": "uint256",
          "name": "",
          "type": "uint256"
        }
      ],
      "stateMutability": "view",
      "type": "function"
    }
  ],
  "transactionHash": "0x2765dfd3a9b044295840bdf7588f74c19ea88fe060b3df11e046840e8440bc22",
  "args": [],
  "numDeployments": 1,
  "solcInputHash": "ef7b9ebec9529b6a2c3eae56469eb904",
  "bytecode": "0x61014060405234801561001157600080fd5b5060408051808201825260078152665341592d44414f60c81b6020808301918252835180850190945260018452601960f91b908401528151902060e08190527fad7c5bef027816a800da1736444fb58a807ef4c9603b7848673f7e3a68eb14a56101008190524660a0529192917f8b73c3c69bb8fe3d512ecc4cf759cc79239f7b179b0ffacaa9a75d522b39400f6100ee8184846040805160208101859052908101839052606081018290524660808201523060a082015260009060c0016040516020818303038152906040528051906020012090509392505050565b6080523060c052610120525061010392505050565b60805160a05160c05160e051610100516101205161071a61015260003960006104da01526000610529015260006105040152600061045d01526000610487015260006104b1015261071a6000f3fe608060405234801561001057600080fd5b50600436106100365760003560e01c8063564b81ef1461003b5780635fc2cf721461004e575b600080fd5b6040514681526020015b60405180910390f35b61006161005c36600461063b565b610079565b6040516001600160a01b039091168152602001610045565b600080610085836100d9565b90506100d28161009860e0860186610677565b8080601f01602080910402602001604051908101604052809392919081815260200183838082843760009201919091525061024792505050565b9392505050565b60006102417f879a2da0e633cdda60fc9c89e94da079f111b4c997c144d4316e52c976073db7833561010e6020860186610677565b60405161011c9291906106be565b60405180910390208580604001906101349190610677565b6040516101429291906106be565b604051908190039020606087013561015d6080890189610677565b60405161016b9291906106be565b60405190819003902061018160a08a018a610677565b60405161018f9291906106be565b6040519081900390206101a66101008b018b610677565b6040516101b49291906106be565b6040519081900390206101cb6101208c018c610677565b6040516101d99291906106be565b60408051918290038220602083019a909a528101979097526060870195909552608086019390935260a085019190915260c084015260e0830152610100820152610120810191909152610140016040516020818303038152906040528051906020012061026b565b92915050565b600080600061025685856102b9565b91509150610263816102fe565b509392505050565b6000610241610278610450565b8360405161190160f01b6020820152602281018390526042810182905260009060620160405160208183030381529060405280519060200120905092915050565b60008082516041036102ef5760208301516040840151606085015160001a6102e387828585610577565b945094505050506102f7565b506000905060025b9250929050565b6000816004811115610312576103126106ce565b0361031a5750565b600181600481111561032e5761032e6106ce565b036103805760405162461bcd60e51b815260206004820152601860248201527f45434453413a20696e76616c6964207369676e6174757265000000000000000060448201526064015b60405180910390fd5b6002816004811115610394576103946106ce565b036103e15760405162461bcd60e51b815260206004820152601f60248201527f45434453413a20696e76616c6964207369676e6174757265206c656e677468006044820152606401610377565b60038160048111156103f5576103f56106ce565b0361044d5760405162461bcd60e51b815260206004820152602260248201527f45434453413a20696e76616c6964207369676e6174757265202773272076616c604482015261756560f01b6064820152608401610377565b50565b6000306001600160a01b037f0000000000000000000000000000000000000000000000000000000000000000161480156104a957507f000000000000000000000000000000000000000000000000000000000000000046145b156104d357507f000000000000000000000000000000000000000000000000000000000000000090565b50604080517f00000000000000000000000000000000000000000000000000000000000000006020808301919091527f0000000000000000000000000000000000000000000000000000000000000000828401527f000000000000000000000000000000000000000000000000000000000000000060608301524660808301523060a0808401919091528351808403909101815260c0909201909252805191012090565b6000807f7fffffffffffffffffffffffffffffff5d576e7357a4501ddfe92f46681b20a08311156105ae5750600090506003610632565b6040805160008082526020820180845289905260ff881692820192909252606081018690526080810185905260019060a0016020604051602081039080840390855afa158015610602573d6000803e3d6000fd5b5050604051601f1901519150506001600160a01b03811661062b57600060019250925050610632565b9150600090505b94509492505050565b60006020828403121561064d57600080fd5b813567ffffffffffffffff81111561066457600080fd5b820161014081850312156100d257600080fd5b6000808335601e1984360301811261068e57600080fd5b83018035915067ffffffffffffffff8211156106a957600080fd5b6020019150368190038213156102f757600080fd5b8183823760009101908152919050565b634e487b7160e01b600052602160045260246000fdfea26469706673582212208c3b85fa57786f393e0e04a203b78c8b02abd3770a5914234ccb3c55bcb8106564736f6c63430008140033",
  "devdoc": {
    "kind": "dev",
    "methods": {},
    "version": 1
  },
  "userdoc": {
    "kind": "user",
    "methods": {},
    "version": 1
  },
  "storageLayout": {
    "storage": [],
    "types": null
  }
}