{
  "address": "0x1699378878CF5864E1bc3D88c4eA55E3a8A466FA",
  "abi": [
    {
      "inputs": [],
      "stateMutability": "nonpayable",
      "type": "constructor"
    },
    {
      "inputs": [
        {
          "components": [
            {
              "internalType": "uint256",
              "name": "needId",
              "type": "uint256"
            },
            {
              "internalType": "string",
              "name": "title",
              "type": "string"
            },
            {
              "internalType": "string",
              "name": "category",
              "type": "string"
            },
            {
              "internalType": "uint256",
              "name": "paid",
              "type": "uint256"
            },
            {
              "internalType": "string",
              "name": "deliveryCode",
              "type": "string"
            },
            {
              "internalType": "string",
              "name": "child",
              "type": "string"
            },
            {
              "internalType": "address",
              "name": "signer",
              "type": "address"
            },
            {
              "internalType": "bytes",
              "name": "swSignature",
              "type": "bytes"
            },
            {
              "internalType": "string",
              "name": "role",
              "type": "string"
            },
            {
              "internalType": "string",
              "name": "content",
              "type": "string"
            }
          ],
          "internalType": "struct INeedStorage.InitialVoucher",
          "name": "_voucher",
          "type": "tuple"
        }
      ],
      "name": "_verify",
      "outputs": [
        {
          "internalType": "address",
          "name": "",
          "type": "address"
        }
      ],
      "stateMutability": "view",
      "type": "function"
    },
    {
      "inputs": [],
      "name": "getChainID",
      "outputs": [
        {
          "internalType": "uint256",
          "name": "",
          "type": "uint256"
        }
      ],
      "stateMutability": "view",
      "type": "function"
    }
  ],
  "transactionHash": "0x19feeaa128d3049f8907bf7aa7938e0295a4e368106dfb2af43587b4bed15f5a",
  "args": [],
  "numDeployments": 1,
  "solcInputHash": "d08210d29fd297c9631794aff38a204f",
  "bytecode": "0x61014060405234801561001157600080fd5b5060408051808201825260078152665341592d44414f60c81b6020808301918252835180850190945260018452603160f81b908401528151902060e08190527fc89efdaa54c0f20c7adf612882df0950f5a951637e0307cdcb4c672f298b8bc66101008190524660a0529192917f8b73c3c69bb8fe3d512ecc4cf759cc79239f7b179b0ffacaa9a75d522b39400f6100ee8184846040805160208101859052908101839052606081018290524660808201523060a082015260009060c0016040516020818303038152906040528051906020012090509392505050565b6080523060c052610120525061010392505050565b60805160a05160c05160e051610100516101205161071f61015260003960006104df0152600061052e01526000610509015260006104620152600061048c015260006104b6015261071f6000f3fe608060405234801561001057600080fd5b50600436106100365760003560e01c8063564b81ef1461003b5780635fc2cf721461004e575b600080fd5b6040514681526020015b60405180910390f35b61006161005c366004610640565b610079565b6040516001600160a01b039091168152602001610045565b600080610085836100d9565b90506100d28161009860e086018661067c565b8080601f01602080910402602001604051908101604052809392919081815260200183838082843760009201919091525061024792505050565b9392505050565b60006102417f879a2da0e633cdda60fc9c89e94da079f111b4c997c144d4316e52c976073db7833561010e602086018661067c565b60405161011c9291906106c3565b6040518091039020858060400190610134919061067c565b6040516101429291906106c3565b604051908190039020606087013561015d608089018961067c565b60405161016b9291906106c3565b60405190819003902061018160a08a018a61067c565b60405161018f9291906106c3565b6040519081900390206101a66101008b018b61067c565b6040516101b49291906106c3565b6040519081900390206101cb6101208c018c61067c565b6040516101d99291906106c3565b60408051918290038220602083019a909a528101979097526060870195909552608086019390935260a085019190915260c084015260e0830152610100820152610120810191909152610140016040516020818303038152906040528051906020012061026b565b92915050565b600080600061025685856102b9565b91509150610263816102ff565b509392505050565b6000610241610278610455565b8360405161190160f01b6020820152602281018390526042810182905260009060620160405160208183030381529060405280519060200120905092915050565b6000808251604114156102f05760208301516040840151606085015160001a6102e48782858561057c565b945094505050506102f8565b506000905060025b9250929050565b6000816004811115610313576103136106d3565b141561031c5750565b6001816004811115610330576103306106d3565b14156103835760405162461bcd60e51b815260206004820152601860248201527f45434453413a20696e76616c6964207369676e6174757265000000000000000060448201526064015b60405180910390fd5b6002816004811115610397576103976106d3565b14156103e55760405162461bcd60e51b815260206004820152601f60248201527f45434453413a20696e76616c6964207369676e6174757265206c656e67746800604482015260640161037a565b60038160048111156103f9576103f96106d3565b14156104525760405162461bcd60e51b815260206004820152602260248201527f45434453413a20696e76616c6964207369676e6174757265202773272076616c604482015261756560f01b606482015260840161037a565b50565b6000306001600160a01b037f0000000000000000000000000000000000000000000000000000000000000000161480156104ae57507f000000000000000000000000000000000000000000000000000000000000000046145b156104d857507f000000000000000000000000000000000000000000000000000000000000000090565b50604080517f00000000000000000000000000000000000000000000000000000000000000006020808301919091527f0000000000000000000000000000000000000000000000000000000000000000828401527f000000000000000000000000000000000000000000000000000000000000000060608301524660808301523060a0808401919091528351808403909101815260c0909201909252805191012090565b6000807f7fffffffffffffffffffffffffffffff5d576e7357a4501ddfe92f46681b20a08311156105b35750600090506003610637565b6040805160008082526020820180845289905260ff881692820192909252606081018690526080810185905260019060a0016020604051602081039080840390855afa158015610607573d6000803e3d6000fd5b5050604051601f1901519150506001600160a01b03811661063057600060019250925050610637565b9150600090505b94509492505050565b60006020828403121561065257600080fd5b813567ffffffffffffffff81111561066957600080fd5b820161014081850312156100d257600080fd5b6000808335601e1984360301811261069357600080fd5b83018035915067ffffffffffffffff8211156106ae57600080fd5b6020019150368190038213156102f857600080fd5b8183823760009101908152919050565b634e487b7160e01b600052602160045260246000fdfea264697066735822122003932bea300b06f246bf0260511c5c6897f19cca9b417f1d0bc3771b5e93f47c64736f6c63430008090033",
  "devdoc": {
    "kind": "dev",
    "methods": {},
    "version": 1
  },
  "userdoc": {
    "kind": "user",
    "methods": {},
    "version": 1
  },
  "storageLayout": {
    "storage": [],
    "types": null
  }
}